:020000040000FA
:060000003AEF0EF01200C1
:020006001200E6
:0600080073EF00F012008E
:02000E000000F0
:0400100000000000EC
:060018001CEF00F01200D5
:02001E000200DE
:1000200010000000FB000000040000000E000000B3
:08003000000E000002000000B8
:08003800D8CFE4FFE0CFE4FFA4
:10004000E46EDACFE4FFE2CFDAFFE9CFE4FFEACFF4
:10005000E4FFF6CFE4FFF7CFE4FFF5CFE4FFF3CF03
:10006000E4FFF4CFE4FFFACFE4FF00EE00F0100E5F
:10007000E80403E3EECFE4FFFBD700EE10F00F0E31
:10008000E80403E3EECFE4FFFBD7E652775002E04B
:1000900062EC04F0E55200EE1EF00F0EE80403E3FC
:1000A000E5CFEDFFFBD700EE0FF0100EE80403E301
:1000B000E5CFEDFFFBD7E5CFFAFFE5CFF4FFE5CFC6
:1000C000F3FFE5CFF5FFE5CFF7FFE5CFF6FFE5CF8F
:1000D000EAFFE5CFE9FFE5CFDAFFE550E5CFE0FF46
:1000E000E5CFD8FF1000DACFE4FFE2CFDAFFE9CFA7
:1000F000E4FFEACFE4FFF6CFE4FFF7CFE4FFF5CF6C
:10010000E4FFF3CFE4FFF4CFE4FFFACFE4FF00EE27
:1001100000F0100EE80403E3EECFE4FFFBD700EE9F
:1001200010F00F0EE80403E3EECFE4FFFBD7E65236
:100130009EAA02D01CEC0CF0E55200EE1EF00F0E51
:10014000E80403E3E5CFEDFFFBD700EE0FF0100E60
:10015000E80403E3E5CFEDFFFBD7E5CFFAFFE5CFFA
:10016000F4FFE5CFF3FFE5CFF5FFE5CFF7FFE5CFF0
:10017000F6FFE5CFEAFFE5CFE9FFE5CFDAFF1100B3
:1001800001012B6B0C6B1B6BD30ED06E9268FB0EB8
:10019000936E816AB30E946E826AFC0E956E0F01A7
:1001A0005F6B5E6BC26AC16AC06A5D6B5C6B8C928E
:1001B0009D6AA06A766AD08E9F829D92F19AF09C89
:1001C000F096786A9F8A9D8AF28EF28C1200D9CFBF
:1001D000E6FFE1CFD9FF060EE126D2DFC1EC0BF03E
:1001E000050EE66EAA0EE66E040EE66ECDEC04F089
:1001F000E552E552E552020EDB6A030EDB68F36E50
:10020000040EF3CFDBFF0E0EF36E050EF3CFDBFF14
:10021000010EDB6A2C0EE66E010EE66E020EDBCFDF
:10022000E6FFBFEC08F0E552E552E5522C0EE66E13
:10023000010EE66EE9EC0BF0E552E552710EE66E4A
:100240001C0EE66ECCEC0BF0E552E5522C0EE66E81
:10025000010EE66E030EDBCFE6FFBFEC08F0E552C1
:10026000E552E5522C0EE66E010EE66EE9EC0BF05F
:10027000E552E552710EE66E1C0EE66ECCEC0BF00C
:10028000E552E5522C0EE66E010EE66E040EDBCF53
:10029000E6FFBFEC08F0E552E552E5522C0EE66EA3
:1002A000010EE66EE9EC0BF0E552E552710EE66EDA
:1002B0001C0EE66ECCEC0BF0E552E5522C0EE66E11
:1002C000010EE66E010EDBCFE6FFBFEC08F0E55253
:1002D000E552E5522C0EE66E010EE66EE9EC0BF0EF
:1002E000E552E552710EE66E1C0EE66ECCEC0BF09C
:1002F000E552E5522C0EE66E010EE66E050EDBCFE2
:10030000E6FFBFEC08F0E552E552E5522C0EE66E32
:10031000010EE66EE9EC0BF0E552E552560EE66E84
:100320001C0EE66ECCEC0BF0E552E5521EC10FF14F
:1003300020C111F122C112F1010121511D91E8B03A
:100340001D811D931C6B1FC110F1080E1B6FDF6A0E
:10035000DFCF10F0080EE76E1018E8AE02D0E734D9
:1003600002D0E750105C11E2280EDF24E66EDFCFEA
:10037000E9FFEA6AE9BEEA68130EE926010EEA22FD
:10038000E552E750EF6EDF2AE3D70FC1E6FF10C159
:10039000E6FF11C1E6FF12C1E6FF13C1E6FF14C17B
:1003A000E6FF15C1E6FF16C1E6FF17C1E6FF18C15B
:1003B000E6FF19C1E6FF1AC1E6FF1BC1E6FF1CC13B
:1003C000E6FF1DC1E6FFA4EC05F0106E0F0EE15E26
:1003D0001050F5EC06F0000901E03DD80001F0A155
:1003E000F8D754D90009F5E01EC10FF120C111F171
:1003F00022C112F1010121511D91E8B01D811D930F
:100400001C6B1FC110F1080E1B6FDF6ADFCF10F0ED
:10041000080EE76E1018E8AE02D0E73402D0E750BD
:10042000105CB3E2DFCFE9FFEA6AE9BEEA68230EB7
:10043000E926010EEA22EF50E66EDFCFE9FFEA6A15
:10044000E9BEEA68130EE926010EEA22E552E750FA
:10045000EF6EDF2ADBD7D9CFE6FFE1CFD9FFE65237
:100460000F0EE126FBEC06F0EECF00F1EECF01F12E
:10047000EECF02F1EECF03F1EECF04F1EECF05F1B6
:10048000EECF06F1EECF07F1EECF08F1EECF09F196
:10049000EECF0AF1EECF0BF1EECF0CF1EECF0DF176
:1004A000EECF0EF1106E0F0EE15E10502C0EE66EC8
:1004B000010EE66E01010051E66EE66A40EC09F0BD
:1004C000E552E552E552E5522C0EE66E010EE66E5F
:1004D000E9EC0BF0E552E552710EE66E1C0EE66E8D
:1004E000CCEC0BF0E552E5522C0EE66E010EE66EFA
:1004F00001010151E66EE66A40EC09F0E552E55271
:10050000E552E5522C0EE66E010EE66EE9EC0BF0BC
:10051000E552E552710EE66E1C0EE66ECCEC0BF069
:10052000E552E5522C0EE66E010EE66E02C1E6FFC4
:10053000BFEC08F0E552E552E5522C0EE66E010ED6
:10054000E66EE9EC0BF0E552E552710EE66E1C0E1C
:10055000E66ECCEC0BF0E552E5522C0EE66E010E89
:10056000E66E01010E51010BE66EBFEC08F0E5529C
:10057000E552E5522C0EE66E010EE66EE9EC0BF04C
:10058000E552E552710EE66E1C0EE66ECCEC0BF0F9
:10059000E552E5522C0EE66E010EE66E01010351A6
:1005A000E66EE66A40EC09F0E552E552E552E552A6
:1005B0002C0EE66E010EE66EE9EC0BF0E552E5520C
:1005C000710EE66E1C0EE66ECCEC0BF0E552E552B9
:1005D0000101020532E1120E035D02E0000E01D0BE
:1005E000010E106E230E035D02E0000E01D0010E1D
:1005F000101023E004C140F105C141F106C142F1F0
:1006000007C143F12C0EE66E010EE66E04C1E6FF53
:1006100005C1E6FF06C1E6FF07C1E6FFDAEC09F017
:10062000106E060EE15E10502C0EE66E010EE66EA8
:10063000E9EC0BF0E552E55215D0DF6A01010C51EF
:10064000DF5C10E2DFCFE9FFEA6AE9BEEA68040E88
:10065000E926010EEA22EF50E66E05EC0CF0E552B9
:10066000DF2AECD7540EE66E1C0EE66ECCEC0BF0D7
:10067000E552E552E552E552E7CFD9FF1200D9CF56
:10068000E6FFE552E7CFD9FF12001200D9CFE6FF0F
:10069000E1CFD9FF080EE126020EDB6A030EDB6A0A
:1006A000050EDB6AD950060FE96EDACFEAFF3B0E82
:1006B000EE6EEE6AD950060FE66E000EDA20E66E98
:1006C000D00EE66E000EE66E08EC0DF0E552E55237
:1006D000E552E552F3CFDEFFF4CFDDFFD9CFE9FFDE
:1006E000DACFEAFFEE50ED1001E1BFD0060EF36E57
:1006F000050EDBCFF4FFF350F45C01E3B6D0050E3A
:10070000DB50050A4DE0010A40E0070A28E0010A33
:100710001BE0030A0EE0010A01E09BD0DECFE6FFFA
:10072000DDCFE6FF4AEC08F0E552E552F3CF1EF1CB
:1007300090D0DECFE6FFDDCFE6FF4AEC08F0E552D1
:10074000E552F3CF1FF185D0DECFE6FFDDCFE6FF28
:100750004AEC08F0E552E552F3CF20F17AD0DECF33
:10076000E6FFDDCFE6FF4AEC08F0E552E552F3CFB5
:1007700010F0F4CF11F0F350F41004E00101010E79
:10078000216F67D00101216B64D0DECFE6FFDDCFA2
:10079000E6FF4AEC08F0E552E552F3CF22F159D0DA
:1007A000D9CFE9FFDACFEAFF020EEECFDBFF030E6F
:1007B000EDCFDBFF020EDBCFE6FF030EDBCFE6FF64
:1007C00092EC0CF0E552E552F3CF10F0F4CF11F0BB
:1007D0001006000E115A040E10C0DBFFDB50E76E4E
:1007E000020EDBCFE9FF030EDBCFEAFFE750E9267D
:1007F000000EEA22EF500D080EE1040EDB50E76E0A
:10080000020EDBCFE9FF030EDBCFEAFFE750E9265C
:10081000000EEA22EF6A040EDB50E76E020EDBCF19
:10082000E9FF030EDBCFEAFFE750E926000EEA22DC
:10083000EF500A080EE1040EDB50E76E020EDBCF2C
:10084000E9FF030EDBCFEAFFE750E926000EEA22BC
:10085000EF6A050EDB2AD950060FE66E000EDA208D
:10086000E66E000EE66EE66A2FD7050EF36EDBCF5E
:10087000F4FFE850F45C04E20001F091000E16D0A1
:10088000080EE66EE66A020EDBCFE6FF030EDBCF54
:10089000E6FF230EE66E010EE66E67EC0CF0106EBE
:1008A000060EE15E10500001F091010E106E080E70
:1008B000E15C02E2E16AE552E16E1050E552E7CFF9
:0408C000D9FF12004A
:0C08C400D9CFE6FFE1CFD9FFE652775014
:1008D00076145EE06F50DF6E7750010B08E07650C3
:1008E000010B05E07790F00E6F140C090AD07750D9
:1008F000020B0AE07650020B07E07792F00E6F14BD
:100900000A096F6E97D842D07750040B0EE07650EC
:10091000040B0BE0F00E6F1408096F6ECDD80009C0
:1009200002E0769433D0779431D07750080B0EE004
:100930007650080B0BE0F00E6F1406096F6EBCD8F2
:10094000000902E0769622D0779620D07750100BDF
:100950000EE07650100B0BE0F00E6F1404096F6E72
:10096000ABD8000902E0769811D077980FD0775075
:10097000200B05E07650200B02E0779A07D07750E5
:10098000400B04E07650400B01E0779CDF506F6E27
:10099000E552E552E7CFD9FF1200D9CFE6FF939495
:1009A0009386766A776A3F0E6F1480096F6EE00E49
:1009B0006E148008FCE10E01050E436FBA0E446F01
:1009C000070E456F440E606E0F01400E306F0E0132
:1009D000E36BE26B080EE16FE06BE76BE66BE56FD4
:1009E000E46BEB6BEA6BE96FE869EF6BEE6BED6F55
:1009F000EC69F36BF26BF16FF06BF76BF66BF56F05
:100A0000F46BFB6BFA6BF96BF86BFF6BFE6BFD6BBA
:100A1000FC6B210E706E1F0E6F146F6EE00E6E1465
:100A2000FDE1030E766E180E776E000EE552E7CFED
:100A3000D9FF1200D9CFE6FFE1CFD9FFE65200017E
:100A4000FC2B040EE76EFC19E8AE02D0E73402D0AE
:100A5000E750FC5D01E3FC6BDF6A0E0EDF5C26E213
:100A6000DF50EA6A600FE96E0F0EEA22EF50E66E81
:100A7000FCC0E9FFEA6AE9BEEA680E0EEA02F3CFBB
:100A8000EAFFE902F3CFE9FFF450EA26600EE92617
:100A9000000EEA22DF500F01E924E96E000EEA2081
:100AA000EA6EE552E750EF6EDF2AD7D7609EE55237
:100AB000E552E7CFD9FF1200D9CFE6FFE1CFD9FF4A
:100AC000E6520001FD51FE5D39E0FD2B040EE76E9C
:100AD000FD19E8AE02D0E73402D0E750FD5D01E336
:100AE000FD6BDF6A0E0EDF5C26E2FDC0E9FFEA6AFD
:100AF000E9BEEA680E0EEA02F3CFEAFFE902F3CF9D
:100B0000E9FFF450EA26980EE926000EEA22DF50AB
:100B10000F01E924E96E000EEA20EA6EEF50E66E5E
:100B2000DF50EA6A600FE96E0F0EEA22E552E750E5
:100B3000EF6EDF2AD7D76086000E01D0010EE55296
:100B4000E552E7CFD9FF1200D9CFE6FFE1CFD9FFB9
:100B5000020EE1260001FD05FE5D05E0030EFE5DCF
:100B600004E1FD5102E1010E34D1030EE76EFE19DE
:100B7000E8AE02D0E73402D0E750FE5D02E3DF6A60
:100B800002D0FE29DF6EFC0EDB50080805E2080EDD
:100B9000F36EFC0EF3CFDBFFDF500E0DF3CFE9FF5A
:100BA000F4CFEAFF980EE926000EEA22050EE926A8
:100BB000000EEA22FC0EDBCFEFFFD950F00FE96EFA
:100BC000FF0EDA20EA6E0E0EE926000EEA22EF5042
:100BD000020B45E1DF500E0DF3CFE9FFF4CFEAFF42
:100BE000980EE926000EEA22050EE926000EEA22FA
:100BF000EF9C010EDB6AFC0EDB50F36E010EDBCFC7
:100C0000F4FFF350F45C3AE2D950F40F126EFF0E89
:100C1000DA20136E010EDB500F011224E96E000E74
:100C20001320EA6EEF50E66EDF500E0DF3CFE9FFB2
:100C3000F4CFEAFF980EE926000EEA22060EE92616
:100C4000000EEA22010EDB50E924E96E000EEA20D4
:100C5000EA6EE552E750EF6E010EDB2ACCD7DF508B
:100C60000E0DF3CFE9FFF4CFEAFF980EE926000E50
:100C7000EA22050EE926000EEA22EF8CDF500E0D67
:100C8000F3CFE9FFF4CFEAFF980EE926000EEA223F
:100C9000EE52F00EDBCFEFFFDF500E0DF3CFE9FF8A
:100CA000F4CFEAFF980EE926000EEA22030EE926A9
:100CB000000EEA22F10EDBCFEFFFF20EDB50106EDA
:100CC000DF500E0DF3CFE9FFF4CFEAFF980EE926CF
:100CD000000EEA22020EE926000EEA221050070B4F
:100CE000F36EF346F346F346F346F3461F0EEF1456
:100CF000F310EF6EDF500E0DF3CFE9FFF4CFEAFFF4
:100D0000980EE926000EEA22040EE926000EEA22D9
:100D1000F30EDBCFEFFFDF500E0DF3CFE9FFF4CF83
:100D2000EAFF980EE926000EEA22020EE926000EDE
:100D3000EA22EF86D950F00FE96EFF0EDA20EA6E54
:100D40000E0EE926000EEA22EF50010B106EDF5066
:100D50000E0DF3CFE9FFF4CFEAFF980EE926000E5F
:100D6000EA22020EE926000EEA221050010BF36E71
:100D7000FE0EEF14F310EF6EDF500E0DF3CFE9FF10
:100D8000F4CFEAFF980EE926000EEA22020EE926C9
:100D9000000EEA22EF92FD0EDB50030BE66EDF50F1
:100DA0000E0DF3CFE9FFF4CFEAFF980EE926000E0F
:100DB000EA22E552E750EF6EDFCFFEF076B402D0C4
:100DC000768406D076B602D0768602D076A876886B
:100DD000000E106E020EE15C02E2E16AE552E16E85
:100DE0001050E552E7CFD9FF12000001FB51FC5D26
:100DF00001E0010C000CD9CFE6FFE1CFD9FF110EC5
:100E0000E126030E0001E76EFB19E8AE02D0E734DD
:100E100002D0E750FB5D03E30F0EDB6A05D0FB2930
:100E2000E76E0F0EE7CFDBFFDB500E0DF3CFE9FFD0
:100E3000F4CFEAFF600EE926000EEA22050EE9264D
:100E4000000EEA22EF500F0BE76E0C0EE7CFDBFF30
:100E50000F0EDB500E0DF3CFE9FFF4CFEAFF600E6B
:100E6000E926000EEA22EF50080B03E00E0EDB82AB
:100E700036D00E0EDB92100EDB6A0C0EDB50F36EDA
:100E8000100EDBCFF4FFF350F45C29E20F0EDB50C1
:100E90000E0DF3CFE9FFF4CFEAFF600EE926000E56
:100EA000EA22060EE926000EEA22100EDB500F01A0
:100EB000E924E96E000EEA20EA6EEF50E66ED950A2
:100EC000040F106E100EDB501024E96E000EDA20B5
:100ED000EA6EE552E750EF6E100EDB2ACED70F0E0A
:100EE000DB500E0DF3CFE9FFF4CFEAFF600EE926E9
:100EF000000EEA22EE52EFCFDFFF0F0EDB500E0D99
:100F0000F3CFE9FFF4CFEAFF600EE926000EEA22F4
:100F1000030EE926000EEA22010EEFCFDBFF0F0ED3
:100F2000DB500E0DF3CFE9FFF4CFEAFF600EE926A8
:100F3000000EEA22020EE926000EEA22EF50E00B34
:100F4000E842E842E842E842E842E76E020EE7CFB4
:100F5000DBFF0F0EDB500E0DF3CFE9FFF4CFEAFFFE
:100F6000600EE926000EEA22040EE926000EEA22AF
:100F7000030EEFCFDBFF0F0EDB500E0DF3CFE9FFBB
:100F8000F4CFEAFF600EE926000EEA22020EE926FF
:100F9000000EEA22EF50010B106ED9CFE9FFDACF35
:100FA000EAFF0E0EE926000EEA221050010BF36E46
:100FB000FE0EEF14F310EF6EF00E6F146F6E0F0E47
:100FC000DBCFFBF0D9CFE9FFDACFEAFFEECF10F0AD
:100FD000EECF11F0EECF12F0EECF13F0EECF14F013
:100FE000EECF15F0EECF16F0EECF17F0EECF18F0F3
:100FF000EECF19F0EECF1AF0EECF1BF0EECF1CF0D3
:10100000EECF1DF0EFCF1EF0D9CFE9FFDACFEAFF28
:10101000ED50ED501EC0EDFF1DC0EDFF1CC0EDFFFB
:101020001BC0EDFF1AC0EDFF19C0EDFF18C0EDFFAA
:1010300017C0EDFF16C0EDFF15C0EDFF14C0EDFFAA
:1010400013C0EDFF12C0EDFF11C0EDFF10C0EFFFA8
:10105000110EE15C02E2E16AE552E16EE552E7CF92
:10106000D9FF1200D9CFE6FFE1CFD9FF1F0E6F14D1
:10107000106EFE0EDB50E00B10106F6EE00E6E1463
:10108000106EFE0EDB50E00B105CF8E1E552E7CF8E
:04109000D9FF120072
:0C109400FF0EE3CFEAFFE552FF0EE3CFB2
:1010A000E9FFE552E66AE66AD9CFE6FFDACFE6FF66
:1010B000FC0EE124D96EFF0EE220DA6EE66AE66AE3
:1010C000E66A200EEF5C06E0090EEF5C03E0EF66D7
:1010D00003D03FD0EE50F5D72D0EEF5C03E1FF0EAD
:1010E000E32A03D02B0EEF5C01E1EE502F0EEF64EC
:1010F00024D03A0EEF6021D0D890F90EE336FA0EE4
:10110000E336FD0EDECFE3FFFE0EDDCFE3FFD8902A
:10111000F90EE336FA0EE336D890F90EE336FA0EFE
:10112000E336FD0EE350DE26FE0EE350DD22300EE8
:10113000EE5CDE26000EDD22D9D7FF0EE3CFE8FFFE
:10114000E85207E0F90EE31EE32AFA0ED8B4E306EC
:10115000E31EE552E552E552FF0EE3CFDAFFE5521A
:10116000FF0EE3CFD9FFE552E1CFE9FFE2CFEAFF7F
:10117000ED52ED52EECFF3FFEFCFF4FF1200D9CFD7
:10118000E6FFDACFE6FFFB0EE3CFD9FFFC0EE3CF9D
:10119000DAFFFD0EE35205E72D0EDE6EFD0EE31EB7
:1011A000E32AE652E652FE0EE124E76EFF0EE2204D
:1011B000E46EE652F90EE3CFE6FF1DEC09F0FB0EFC
:1011C000E124E96EFF0EE220EA6E0DEC09F004E185
:1011D0000AEC09F003E104D018EC09F013EC09F073
:1011E00018EC09F0DE6AFB0EE126FF0EE222FF0E8C
:1011F000E3CFDAFFE552FF0EE3CFD9FFE552FD0E54
:10120000E124E96EFF0EE220EA6EEECFF3FFEFCFAE
:10121000F4FF1200EF380F0B1200EF500F0B02E13A
:10122000EE52D8841200EF380F0B300FDE6E120032
:10123000EE500F0B300FDE6E1200FD0EE3CFE9FF14
:10124000FE0EE3CFEAFF080EE66EEE6AEF6AD89074
:10125000FE0EE336ED36EF36FF0EE30606E037EC22
:1012600009F0EE5237EC09F0F3D7E56E1200030EE9
:10127000EF24E8B6EF6E300EEF24E8BEEF6E000C00
:10128000D9CFE6FFDACFE6FFFA0EE3CFD9FFFB0EA8
:10129000E3CFDAFFFD0EE35209E72D0EDE6EFC0E02
:1012A000E31EE32AFD0ED8B4E306E31EE652E6523F
:1012B000E652FD0EE124E76EFF0EE220E46EE652F8
:1012C000F70EE3CFE6FFF70EE3CFE6FFB0EC09F051
:1012D000F90EE124E96EFF0EE220EA6EA0EC09F0BF
:1012E0000AE19DEC09F009E1A0EC09F008E19DECB0
:1012F00009F007E108D0ABEC09F0A6EC09F0ABEC83
:1013000009F0A6EC09F0ABEC09F0DE6AF90EE12673
:10131000FF0EE222FF0EE3CFDAFFE552FF0EE3CF2E
:10132000D9FFE552FC0EE124E96EFF0EE220EA6EE1
:10133000EECFF3FFEFCFF4FF1200EF380F0B1200E8
:10134000EF500F0B02E1EE52D8841200EF380F0B72
:10135000300FDE6E1200EE500F0B300FDE6E1200FB
:10136000FC0EE3CFE9FFFD0EE3CFEAFF100EE66EC1
:10137000EE6AEE6AEF6AD890FD0EE336FE0EE336B3
:10138000ED36ED36EF36FF0EE30609E0D1EC09F05D
:10139000EE52D1EC09F0EE52D1EC09F0EDD7E56E4A
:1013A0001200030EEF24E8B6EF6E300EEF24E8BE15
:1013B000EF6E000CD9CFE6FFDACFE6FFF80EE3CFF1
:1013C000D9FFF90EE3CFDAFFFD0EE35215E72D0E3C
:1013D000DE6EFA0EE31EFB0EE31EFC0EE31EFD0E98
:1013E000E31EFA0EE32A08E1FB0EE32A05E1FC0EF8
:1013F000E32A02E1FD0EE32AE652E652E652E65205
:10140000E652FB0EE124E76EFF0EE220E46EE652A8
:10141000F30EE3CFE6FFF30EE3CFE6FFF30EE3CFE9
:10142000E6FFF30EE3CFE6FF77EC0AF0F50EE124DA
:10143000E96EFF0EE220EA6E64EC0AF019E167EC57
:101440000AF018E164EC0AF017E167EC0AF016E123
:1014500064EC0AF015E167EC0AF014E164EC0AF0C0
:1014600013E167EC0AF012E164EC0AF011E112D02A
:101470006DEC0AF072EC0AF06DEC0AF072EC0AF016
:101480006DEC0AF072EC0AF06DEC0AF072EC0AF006
:101490006DEC0AF072EC0AF0DE6AF50EE126FF0E42
:1014A000E222FF0EE3CFDAFFE552FF0EE3CFD9FFD2
:1014B000E552FA0EE124E96EFF0EE220EA6EEECF6D
:1014C000F3FFEFCFF4FF1200EF380F0B1200EF50D5
:1014D0000F0B02E1EE52D8841200EF380F0B300FE1
:1014E000DE6E1200EE500F0B300FDE6E1200FA0EA1
:1014F000E3CFE9FFFB0EE3CFEAFF200EE66EEE6AD4
:10150000EE6AEE6AEE6AEF6AD890FB0EE336FC0EE6
:10151000E336FD0EE336FE0EE336ED36ED36ED3600
:10152000ED36EF36FF0EE3060FE0A6EC0AF0EE52C2
:10153000A6EC0AF0EE52A6EC0AF0EE52A6EC0AF087
:10154000EE52A6EC0AF0E1D7E56E1200030EEF248E
:0E155000E8B6EF6E300EEF24E8BEEF6E000C32
:02155E00D9CFE3
:10156000E6FFE1CFD9FF040EE12601D079D0FB0ED2
:10157000DBCF10F0FC0EDBCF11F0FD0EDBCF12F055
:10158000FE0EDBCF13F03C0E096E0A6A0B6A0C6A82
:1015900010C004F011C005F012C006F013C007F02F
:1015A000E2EC0DF000C010F001C011F002C012F02A
:1015B00003C013F010C0DFFF010E11C0DBFF020EED
:1015C00012C0DBFF030E13C0DBFFD9CFE9FFDACF78
:1015D000EAFFAF0EEE5E000EEE5A000EEE5A000E5F
:1015E000EE5ADECF05F0DECF06F0DECF07F0DDCF1E
:1015F00008F0DD52DD520834000E081809E6D880E4
:101600002D0E0554000E0654000E0754000E08540B
:1016100001E326D0DECF05F0DECF06F0DECF07F007
:10162000DDCF08F0DD52DD520834000E081809E65F
:10163000D880000E0554000E0654000E0754000E0C
:1016400008540EE20000D9CFE9FFDACFEAFF2A0EF4
:10165000EE5E000EEE5A000EEE5A000EEE5ADAD78B
:10166000040EE15C02E2E16AE552E16EE552E7CF89
:10167000D9FF1200D9CFE6FFE1CFD9FF040EE12652
:10168000FD0EDBCF10F0FE0EDBCF11F0126A136AF5
:10169000700E096E170E0A6E0B6A0C6A10C004F009
:1016A00011C005F012C006F013C007F0E2EC0DF017
:1016B00000C010F001C011F002C012F003C013F01E
:1016C00010C0DFFF010E11C0DBFF020E12C0DBFFF6
:1016D000030E13C0DBFFD9CFE9FFDACFEAFFAA0E72
:1016E000EE5E000EEE5A000EEE5A000EEE5ADECFFF
:1016F00005F0DECF06F0DECF07F0DDCF08F0DD52DB
:10170000DD520834000E081809E6D880C30E0554CF
:10171000000E0654000E0754000E085402E327D0B2
:1017200026D0DECF05F0DECF06F0DECF07F0DDCF2E
:1017300008F0DD52DD520834000E081809E6D880A2
:10174000000E0554000E0654000E0754000E0854F7
:101750000EE20000D9CFE9FFDACFEAFF270EEE5EF6
:10176000000EEE5A000EEE5A000EEE5ADAD7040EB4
:10177000E15C02E2E16AE552E16EE552E7CFD9FFB2
:02178000120055
:0E178200948E949C240EAC6E900EAB6E400EB6
:10179000A76E0C0EAF6E1200D9CFE6FFE1CFD9FFD6
:1017A000E652FD0EDBCFF6FFDB2AFE0EDBCFF7FFA6
:1017B00001E3DB2A0800F550DF6EDF5005E0DFCFE4
:1017C000E6FF23D8E552EDD7E552E552E7CFD9FF42
:1017D0001200D9CFE6FFE1CFD9FFE652FD0EDBCFF5
:1017E000E9FFDB2AFE0EDBCFEAFF01E3DB2AEFCFC6
:1017F000DFFFDF5005E0DFCFE6FF07D8E552EED789
:10180000E552E552E7CFD9FF1200D9CFE6FFE1CF8D
:10181000D9FFACA2FED78C82FE0EDB50AD6EACA21F
:10182000FED78C92E552E7CFD9FF1200ABA202D0CF
:10183000AB98AB88AE501200D9CFE6FFE1CFD9FF0D
:10184000E6529E50200B3EE09D50200B3BE0ABA2A9
:1018500002D0AB98AB88ABA407D0AE50AE6EAE5002
:10186000AE6EAE50AE6E2DD0AE50DF6E0001F0B158
:1018700028D01E0EE76EEF19E8AE02D0E73402D092
:10188000E750EF5D1DE20A0EDF5C0DE1EFC0E9FFFE
:10189000EA6AE9BEEA68D00EE926000EEA22EF6A9B
:1018A000F081EF6B0ED0EFC0E9FFEA6AE9BEEA68AB
:1018B000D00EE926000EEA22DFCFEFFFEF2B01D09A
:0E18C000EF6B9E9AE552E552E7CFD9FF12007A
:0218CE00D9CF70
:1018D000E6FFDACFE6FFFA0EE3CFD9FFFB0EE3CF48
:1018E000DAFFFC0EE3CFE9FFFD0EE3CFEAFFE9CF1D
:1018F000F3FFEACFF4FFF80EE35003E1F90EE350F3
:1019000008E0F80EE30602E2F90EE306DECFEEFF92
:10191000F2D7FF0EE3CFDAFFE552FF0EE3CFD9FF98
:10192000E5521200FE0EE3CFE9FFFF0EE3CFEAFF20
:10193000F36AF46AEE5203E0F34AF42AFBD712008A
:10194000FE0EE3CFE9FFFF0EE3CFEAFFFD0EE3500B
:10195000EF5C05E0EE66FAD7F36AF46A04D0E9CFEB
:10196000F3FFEACFF4FF1200D9CFE6FFDACFE6FFAC
:10197000FC0EE3CFE9FFFD0EE3CFEAFFEF500DE0F1
:10198000FA0EE3CFD9FFFB0EE3CFDAFFDE5003E020
:10199000EF5C06E0FBD7EE50F1D7F36AF46A04D0AF
:1019A000E9CFF3FFEACFF4FFFF0EE3CFDAFFE55212
:1019B000FF0EE3CFD9FFE5521200D9CFE6FFDACF11
:1019C000E6FFFC0EE3CFE9FFFD0EE3CFEAFFEF50A9
:1019D0000CE0FA0EE3CFD9FFFB0EE3CFDAFFDE50C7
:1019E00004E0EF5CFCE1EE50F2D7FC0EE350E95E60
:1019F000FD0EE350EA5AE9CFF3FFEACFF4FFFF0E02
:101A0000E3CFDAFFE552FF0EE3CFD9FFE552120034
:101A1000D9CFE6FFDACFE6FFE1CFD9FFE2CFDAFF99
:101A2000E652E6526BD8EE50ED1006E1FC0E00CE09
:101A3000DBFFFD0E01CEDBFF68D8FC0EDBCFE6FF3F
:101A4000FD0EDBCFE6FFDDEC0CF0E552E552E55292
:101A5000E552F3CF10F0F4CF11F050D8F350EE264A
:101A60001150ED2259D8EF5003E1F36AF46A3ED0E9
:101A7000FC0EDBCFDEFFDBCFDDFF47D8DECFE6FF9E
:101A8000DDCFE6FFB4EC0CF0E552E552E552E5524D
:101A9000FC0EF3CFDBFFFD0EF4CFDBFF2FD8EE50B3
:101AA000ED100FE1E66ADECFE6FFDDCFE6FFA0EC4A
:101AB0000CF0E552E552E552F3CF00FEF4CF01FE03
:101AC0000DD02AD8EF6AFC0EDBCF00FEFD0EDBCF77
:101AD00001FE010E0E010027000E0123DECF10F0E3
:101AE000DDCF11F010C0F3FF11C0F4FFE552E55255
:101AF000E552E5CFDAFFE7CFD9FF1200D950FC0F4E
:101B0000E96EFF0EDA20EA6E1200FA0EDBCFE6FF76
:101B1000FB0EDBCFE6FF1200FC0EDBCFE9FFFD0E74
:061B2000DBCFEAFF12001A
:0A1B26001E0EF66E000EF76E000EA4
:101B3000F86E00010900F550F66F0900F550F76FD7
:101B400003E1F66701D03DD00900F550F16F0900BF
:101B5000F550F26F0900F550F36F09000900F550D8
:101B6000E96E0900F550EA6E090009000900F55018
:101B7000F46F0900F550F56F09000900F6CFF8F091
:101B8000F7CFF9F0F8CFFAF0F1C0F6FFF2C0F7FFA7
:101B9000F3C0F8FF0001F45302E1F55307E0090038
:101BA000F550EE6EF407F8E2F507F9D7F8C0F6FF46
:101BB000F9C0F7FFFAC0F8FF0001F607000EF75B67
:041BC000BFD7120079
:0C1BC40004500902F3CF00F0F4CF01F050
:101BD0000A02F3500126000EF420026E04500B029C
:101BE000F3500226000EF420036E04500C02F35052
:101BF000032605500902F3500126F4500222000E7C
:101C0000032205500A02F3500226F4500322055025
:101C10000B02F350032606500902F3500226F4503B
:101C2000032206500A02F350032607500902F3501C
:041C30000326120075
:0C1C3400410EF36E00EE00F00E0E01D821
:101C40001200EA6002D0EE6AFCD7F350E96012009D
:041C5000EE6AFCD765
:0C1C54000A003B476174657761792073DA
:101C600074617274757020636F6D706C6574650A51
:031C7000003B0036
:0C1C74001DEE00F02DEE00F0F86A0F9C51
:101C800093EC0DF003EC00F0E7EC00F0FBD7120052
:020000040030CA
:010000001DE2
:0100010002FC
:010002007E7F
:010003007F7D
:010005008971
:010006009168
:010008000FE8
:01000900C036
:01000A000FE6
:01000B00E014
:01000C000FE4
:01000D0040B2
:00000001FF
